{
  "safeAddress": "0xb949ff518B0cF6f71005FA2B5eE16e02Ab19eec9",
  "txId": "multisig_0xb949ff518B0cF6f71005FA2B5eE16e02Ab19eec9_0x63cb67c5d895f62e9740096af132e8748ad2c19516cd5ad9f3153cda88821a22",
  "executedAt": null,
  "txStatus": "AWAITING_CONFIRMATIONS",
  "txInfo": {
    "type": "Custom",
    "to": { "value": "0x4C60051384bd2d3C01bfc845Cf5F4b44bcbE9de5" },
    "dataSize": "644",
    "value": "150000000000000000",
    "methodName": "execute",
    "isCancellation": false
  },
  "txData": {
    "hexData": "0x3593564c000000000000000000000000000000000000000000000000000000000000006000000000000000000000000000000000000000000000000000000000000000a0000000000000000000000000000000000000000000000000000000006475788c00000000000000000000000000000000000000000000000000000000000000020b000000000000000000000000000000000000000000000000000000000000000000000000000000000000000000000000000000000000000000000000000002000000000000000000000000000000000000000000000000000000000000004000000000000000000000000000000000000000000000000000000000000000a0000000000000000000000000000000000000000000000000000000000000004000000000000000000000000000000000000000000000000000000000000000020000000000000000000000000000000000000000000000000214e8348c4f0000000000000000000000000000000000000000000000000000000000000000010000000000000000000000000000000000000000000000000000000000000000010000000000000000000000000000000000000000000000000214e8348c4f00000000000000000000000000000000000000000000000000000000000000020e3e00000000000000000000000000000000000000000000000000000000000000a00000000000000000000000000000000000000000000000000000000000000000000000000000000000000000000000000000000000000000000000000000002b0d500b1d8e8ef31e21c99d1db9a6444d3adf12700001f4c2132d05d31c914a87c6611c10748aeb04b58e8f000000000000000000000000000000000000000000",
    "dataDecoded": {
      "method": "execute",
      "parameters": [
        { "name": "commands", "type": "bytes", "value": "0x0b00" },
        {
          "name": "inputs",
          "type": "bytes[]",
          "value": [
            "0x00000000000000000000000000000000000000000000000000000000000000020000000000000000000000000000000000000000000000000214e8348c4f0000",
            "0x00000000000000000000000000000000000000000000000000000000000000010000000000000000000000000000000000000000000000000214e8348c4f00000000000000000000000000000000000000000000000000000000000000020e3e00000000000000000000000000000000000000000000000000000000000000a00000000000000000000000000000000000000000000000000000000000000000000000000000000000000000000000000000000000000000000000000000002b0d500b1d8e8ef31e21c99d1db9a6444d3adf12700001f4c2132d05d31c914a87c6611c10748aeb04b58e8f000000000000000000000000000000000000000000"
          ]
        },
        { "name": "deadline", "type": "uint256", "value": "1685420172" }
      ]
    },
    "to": { "value": "0x4C60051384bd2d3C01bfc845Cf5F4b44bcbE9de5" },
    "value": "150000000000000000",
    "operation": 0
  },
  "detailedExecutionInfo": {
    "type": "MULTISIG",
    "submittedAt": 1685418390850,
    "nonce": 2,
    "safeTxGas": "0",
    "baseGas": "0",
    "gasPrice": "0",
    "gasToken": "0x0000000000000000000000000000000000000000",
    "refundReceiver": { "value": "0x0000000000000000000000000000000000000000" },
    "safeTxHash": "0x63cb67c5d895f62e9740096af132e8748ad2c19516cd5ad9f3153cda88821a22",
    "executor": null,
    "signers": [
      { "value": "0x9Ff4436b0429862318f9C825b9170147F5FAb2f6" },
      { "value": "0x1bFE34139c6d4Ec785CDf6B89F26AF8270250fFf" }
    ],
    "confirmationsRequired": 2,
    "confirmations": [
      {
        "signer": { "value": "0x1bFE34139c6d4Ec785CDf6B89F26AF8270250fFf" },
        "signature": "0x9f0129bea11a99856e9ef691554ac2e78ec69a74a020f25806bc2196973ca0fb52fc58112f9cf4d60c9eb7578a8330aecbcb80ba78c8c537d20eb1aeb5efe6191c",
        "submittedAt": 1685418390891
      }
    ],
    "trusted": true
  },
  "txHash": null
}
