{
  "safeAddress": "0xb949ff518B0cF6f71005FA2B5eE16e02Ab19eec9",
  "txId": "multisig_0xb949ff518B0cF6f71005FA2B5eE16e02Ab19eec9_0xdf30638c29b9d26496d6d93ab436eb68821548b0534b016f1708fd8ee63c93c2",
  "executedAt": null,
  "txStatus": "AWAITING_CONFIRMATIONS",
  "txInfo": {
    "type": "Custom",
    "to": { "value": "0x4C60051384bd2d3C01bfc845Cf5F4b44bcbE9de5" },
    "dataSize": "644",
    "value": "100000000000000000",
    "methodName": "execute",
    "isCancellation": false
  },
  "txData": {
    "hexData": "0x3593564c000000000000000000000000000000000000000000000000000000000000006000000000000000000000000000000000000000000000000000000000000000a0000000000000000000000000000000000000000000000000000000006475635600000000000000000000000000000000000000000000000000000000000000020b000000000000000000000000000000000000000000000000000000000000000000000000000000000000000000000000000000000000000000000000000002000000000000000000000000000000000000000000000000000000000000004000000000000000000000000000000000000000000000000000000000000000a000000000000000000000000000000000000000000000000000000000000000400000000000000000000000000000000000000000000000000000000000000002000000000000000000000000000000000000000000000000016345785d8a000000000000000000000000000000000000000000000000000000000000000001000000000000000000000000000000000000000000000000000000000000000001000000000000000000000000000000000000000000000000016345785d8a0000000000000000000000000000000000000000000000000000013bd2d7a0f2a43c00000000000000000000000000000000000000000000000000000000000000a00000000000000000000000000000000000000000000000000000000000000000000000000000000000000000000000000000000000000000000000000000002b0d500b1d8e8ef31e21c99d1db9a6444d3adf12700001f48f3cf7ad23cd3cadbd9735aff958023239c6a063000000000000000000000000000000000000000000",
    "dataDecoded": {
      "method": "execute",
      "parameters": [
        { "name": "commands", "type": "bytes", "value": "0x0b00" },
        {
          "name": "inputs",
          "type": "bytes[]",
          "value": [
            "0x0000000000000000000000000000000000000000000000000000000000000002000000000000000000000000000000000000000000000000016345785d8a0000",
            "0x0000000000000000000000000000000000000000000000000000000000000001000000000000000000000000000000000000000000000000016345785d8a0000000000000000000000000000000000000000000000000000013bd2d7a0f2a43c00000000000000000000000000000000000000000000000000000000000000a00000000000000000000000000000000000000000000000000000000000000000000000000000000000000000000000000000000000000000000000000000002b0d500b1d8e8ef31e21c99d1db9a6444d3adf12700001f48f3cf7ad23cd3cadbd9735aff958023239c6a063000000000000000000000000000000000000000000"
          ]
        },
        { "name": "deadline", "type": "uint256", "value": "1685414742" }
      ]
    },
    "to": { "value": "0x4C60051384bd2d3C01bfc845Cf5F4b44bcbE9de5" },
    "value": "100000000000000000",
    "operation": 0
  },
  "detailedExecutionInfo": {
    "type": "MULTISIG",
    "submittedAt": 1685412980859,
    "nonce": 2,
    "safeTxGas": "0",
    "baseGas": "0",
    "gasPrice": "0",
    "gasToken": "0x0000000000000000000000000000000000000000",
    "refundReceiver": { "value": "0x0000000000000000000000000000000000000000" },
    "safeTxHash": "0xdf30638c29b9d26496d6d93ab436eb68821548b0534b016f1708fd8ee63c93c2",
    "executor": null,
    "signers": [
      { "value": "0x9Ff4436b0429862318f9C825b9170147F5FAb2f6" },
      { "value": "0x1bFE34139c6d4Ec785CDf6B89F26AF8270250fFf" }
    ],
    "confirmationsRequired": 2,
    "confirmations": [],
    "trusted": false
  },
  "txHash": null
}
